:0400000028EF0DF0E8
:10100000003738392F3435362A3132332D63303DAD
:101010002B800F810F820F830F840F890F8A0F8B14
:101020000F8C0F8D0F920F930F940F950F960F004B
:10103000010E326E2A50D8B420EF08F022EF08F0EB
:1010400040EF08F02A50D96EDA6ADF50070B2C6E99
:10105000050E2C602EEF08F030EF08F040EF08F09E
:101060002A50D96EDA6ADF30E832E832070B2C6E8C
:10107000070E2C643EEF08F040EF08F0A7EF08F0F1
:10108000000E326EF2EF08F02A50D96EDA6ADF30C5
:10109000E832E832070B2C6E010E2D6E2C2A53EF2E
:1010A00008F0D8902D362C2E51EF08F02D50FF0A65
:1010B0002E6E2A50D96EDA6ADF50070B020DF350FC
:1010C0001B0F2F6E2FC0F6FF100EF76EF86A090087
:1010D000F5CF30F00900F5CF31F030C0D9FF31C085
:1010E000DAFF2E50DF16BCEF08F02A50D96EDA6A0C
:1010F000DF30E832E832070B2C6E010E2D6E2C2A01
:1011000084EF08F0D8902D362C2E82EF08F02A506C
:10111000D96EDA6ADF50070B020DF3501B0F2E6EEB
:101120002EC0F6FF100EF76EF86A0900F5CF2FF00B
:101130000900F5CF30F02FC0D9FF30C0DAFF2D50B5
:10114000DF12BCEF08F0000E326EBCEF08F02B503F
:101150002C6E2D6A2D50000AD8B4B1EF08F0A3EF21
:1011600008F02C50000AD8B444EF08F0010AD8B4B3
:1011700075EF08F0A3EF08F02A50D96EDA6ADF3075
:10118000E832E832070B2C6E2A50D96EDA6ADF504B
:10119000070B020DF350110F2D6E2DC0F6FF100E30
:1011A000F76EF86A0900F5CF2EF00900F5CF2FF0A1
:1011B0002EC0D9FF2FC0DAFFDF50306E2C2AE3EFAC
:1011C00008F0D89030322C2EE1EF08F0010E3016E6
:1011D0002A50D96EDA6A30323032DF5030187F0B45
:1011E0003018DF6E32501200010E2D6E08EF09F03C
:1011F000000E106E010E116E22EF09F0010E106E3E
:10120000000E116E22EF09F0000E2D6E22EF09F094
:101210002A50D96EDA6A080ED926DF502B6E2C6A56
:101220002C50000AD8B417EF09F004EF09F02B5046
:10123000000AD8B4FEEF08F0010AD8B4F8EF08F0BD
:1012400004EF09F02D04D8A428EF09F02AEF09F0E3
:10125000A9EF09F0000E126E030E126432EF09F0CE
:1012600034EF09F036EF09F06CEF09F02A50122440
:10127000D96EDA6ADF50070B2B6E12501D0FD96E34
:10128000DA6ADF502B18F80B2B18DF6E2A50122465
:10129000D96EDA6ADF30E832E832070B2B6E125073
:1012A0001D0FD96EDA6A2B462B462B46DF502B18C2
:1012B000C70B2B18DF6E12501D0FD96EDA6ADF9C38
:1012C00012501D0FD96EDA6A10B002D0DF9E01D025
:1012D000DF8E122A2CEF09F0000E126E030E12643C
:1012E00074EF09F076EF09F078EF09F0A9EF09F053
:1012F0002A501224D96EDA6A040ED926DF50070B61
:101300002B6E1250190FD96EDA6ADF502B18F80BBA
:101310002B18DF6E2A501224D96EDA6A040ED926F1
:10132000DF30E832E832070B2B6E1250190FD96EFE
:10133000DA6A2B462B462B46DF502B18C70B2B188F
:10134000DF6E1250190FD96EDA6ADF8C122A6EEF37
:1013500009F02D501200010E316E2A50D8B4B3EFAF
:1013600009F0B5EF09F0D3EF09F02A50D96EDA6A27
:10137000DF50070B2B6E050E2B60C1EF09F0C3EF9A
:1013800009F0D3EF09F02A50D96EDA6ADF30E8327B
:10139000E832070B2B6E070E2B64D1EF09F0D3EF69
:1013A00009F036EF0AF0000E316E56EF0AF02A50BF
:1013B000D96EDA6ADF30E832E832070B2B6E010EA5
:1013C0002C6E2B2AE6EF09F0D8902C362B2EE4EF6A
:1013D00009F02C50FF0A2D6E2A50D96EDA6ADF50C0
:1013E000070B020DF350250F2E6E2EC0F6FF100EC8
:1013F000F76EF86A0900F5CF2FF00900F5CF30F04D
:101400002FC0D9FF30C0DAFF2D50DF1656EF0AF09B
:101410002A50D96EDA6ADF30E832E832070B2B6ED9
:10142000010E2C6E2B2A17EF0AF0D8902C362B2E9B
:1014300015EF0AF02A50D96EDA6ADF50070B020D59
:10144000F350250F2D6E2DC0F6FF100EF76EF86AC3
:101450000900F5CF2EF00900F5CF2FF02EC0D9FFEF
:101460002FC0DAFF2C50DF1256EF0AF02A50D96E47
:10147000DA6ADFBC3EEF0AF041EF0AF0010E42EFFC
:101480000AF0000E2B6E2C6A2C50000AD8B44BEFD9
:101490000AF0D3EF09F02B50000AD8B4D7EF09F0C7
:1014A000010AD8B408EF0AF0D3EF09F03150120066
:1014B000000E2C6E2A50D8B460EF0AF062EF0AF0EA
:1014C000E0EF0AF0010E2C6E000E2D6E2A502D2436
:1014D000D96EDA6A020ED926DF50070B2B6E2D501B
:1014E000210FD96EDA6A2B462B462B46DF502B187C
:1014F000C70B2B18DF6E2A502D24D96EDA6A020E24
:10150000D926DF30E832E832070B2B6E2D50210F41
:10151000D96EDA6ADF502B18F80B2B18DF6E2D50BE
:10152000210FD96EDA6ADF9C2D50210FD96EDA6A4D
:10153000DF9E2D2A030E2D64A0EF0AF0A2EF0AF021
:1015400066EF0AF0299C2A50D96EDA6A010ED92674
:10155000DF50070B2B6E2B462B462B4629502B18A2
:10156000C70B2B18296E2A50D96EDA6A010ED926BC
:10157000DF30E832E832070B2B6E29502B18F80BBE
:101580002B18296E299E289C2A50D96EDA6ADF50C2
:10159000070B2B6E2B462B462B4628502B18C70BC0
:1015A0002B18286E2A50D96EDA6ADF30E832E8321A
:1015B000070B2B6E28502B18F80B2B18286E289E23
:1015C0002C501200000E3F6E3C50D8B4EAEF0AF0E7
:1015D000ECEF0AF05DEF0BF03CC02AF058EC0AF09B
:1015E000000E3E6E3E50210F336E41EC0DF03F6E0B
:1015F0003E2A030E3E64FFEF0AF001EF0BF0F2EF1C
:101600000AF0290E336E41EC0DF03F16280E336EB2
:1016100041EC0DF03F161A0E3D6EF80EE82EFED787
:101620003D2EFCD700D03CC039F0300E3A6E0CECA9
:101630000DF03F16070E3D6E7D0EE82EFED73D2EB7
:10164000FCD700003CC039F0300E3A6E0CEC0DF0C7
:101650003F16320EE82EFED73CC039F0300E3A6EFF
:101660000CEC0DF03F163CC039F0020E3A6E0CEC5B
:101670000DF03F163CC039F0280E3A6E0CEC0DF020
:101680003F163CC039F00C0E3A6E0CEC0DF03F16D4
:101690003CC039F0010E3A6E0CEC0DF03F163CC028
:1016A00039F0060E3A6E0CEC0DF03F163CC039F0E6
:1016B000020E3A6E0CEC0DF03F163F501200335004
:1016C000D8B465EF0BF067EF0BF06FEF0BF0345011
:1016D000D8A46DEF0BF06FEF0BF073EF0BF0000E73
:1016E000376EC8EF0BF033C02AF0F4EC08F0376E19
:1016F0003704D8A47EEF0BF080EF0BF0C8EF0BF0AF
:10170000000E396E39501D0F2A6E11C02BF018ECE7
:1017100008F03716000E386E3850190F2A6E360E44
:101720002B6ECAEC0BF0371611503618D8A49BEF6D
:101730000BF09DEF0BF0AEEF0BF03950040DF350B2
:10174000010F3824356E35C0F6FF100EF76EF86ABB
:101750003450D96EDA6A0800F5CFDFFF382A030E5D
:101760003864B5EF0BF0B7EF0BF08CEF0BF039509E
:101770001D0F2A6E10C02BF018EC08F03716392A0E
:10178000030E3964C6EF0BF0C8EF0BF082EF0BF0DD
:1017900037501200010E316E2A50D8B4D2EF0BF040
:1017A000D4EF0BF0FAEF0BF02B50D8B4DAEF0BF0CC
:1017B000DCEF0BF0FAEF0BF02A50D96EDA6ADF504B
:1017C000070B2C6E050E2C60E8EF0BF0EAEF0BF028
:1017D000FAEF0BF02A50D96EDA6ADF30E832E832DD
:1017E000070B2C6E070E2C64F8EF0BF0FAEF0BF0E2
:1017F000FEEF0BF0000E316E2EEF0CF02B50D96E79
:10180000DA6A2A50E16EE26AE730E832E832070B22
:101810002C6E2A50E16EE26AE750070B020DF3507E
:10182000110F2D6E2DC0F6FF100EF76EF86A09002D
:10183000F5CF2EF00900F5CF2FF02EC0E1FF2FC01D
:10184000E2FFE750306E2C2A28EF0CF0D8903032AF
:101850002C2E26EF0CF03050010BDF6E31501200B1
:10186000366E010E376E000E386E3850210F2A6E1C
:1018700038C034F036C035F0353A0F0E3516342AFC
:1018800044EF0CF0D8903532342E42EF0CF0355046
:10189000010B2B6E18EC08F03716382A030E38644B
:1018A00054EF0CF056EF0CF035EF0CF056EC0DF059
:1018B0003716000E386E3850210F2A6E38C034F0BB
:1018C00036C035F0342A67EF0CF0D8903532342E1C
:1018D00065EF0CF03550010B2B6E18EC08F0371645
:1018E000382A030E386477EF0CF079EF0CF05BEFD9
:1018F0000CF056EC0DF03716375012003550D8A4C6
:1019000084EF0CF086EF0CF08AEF0CF0000E366ED0
:10191000C1EF0CF035C02AF0F4EC08F0366E360456
:10192000D8A495EF0CF097EF0CF0C1EF0CF0000E7F
:10193000126E030E12649FEF0CF0A1EF0CF0A3EFF8
:101940000CF0ACEF0CF012501D0F336E41EC0DF0AB
:10195000366E122A99EF0CF0000E126E030E12640E
:10196000B4EF0CF0B6EF0CF0B8EF0CF0C1EF0CF0E8
:101970001250190F2A6EABEC09F0366E122AAEEF38
:101980000CF03650120089EC0DF0430E336E250E2C
:10199000346E5FEC0BF0526E2550D8B4D2EF0CF0E1
:1019A000D4EF0CF0C5EF0CF0255075EC0DF0256E62
:1019B0004C0E396E25C03AF0F0EC0CF0526E000E71
:1019C000256E020E426E450E416EAA0EE82EFED71F
:1019D000412EFCD7422EFAD7C5EF0CF000EF00F0F5
:1019E000000E3B6E3950D8B4F8EF0CF0FAEF0CF063
:1019F0000AEF0DF039C02AF058EC0AF03B6E280EC1
:101A00002A6E010E2B6E18EC08F03B163A5030ECA3
:101A10000CF03B163B501200000E3B6E3950D8B410
:101A200014EF0DF016EF0DF026EF0DF039C02AF08F
:101A300058EC0AF03B6E280E2A6E000E2B6E18EC46
:101A400008F03B163A5030EC0CF03B163B501200BD
:101A5000FA0EF66E1A0EF76E000EF86E00EE43F0F8
:101A600010EE0FF00900F5CFEEFFE550E150FAE17E
:101A700000EE01F0290EEE6AE806FDE10001C3EF79
:101A80000CF0010E346E33C02AF0ABEC09F03416C2
:101A900033C02AF03350D96EDA6A000EDFBE010E71
:101AA0002B6E18EC08F0341634501200290E2A6EF2
:101AB000010E2B6E18EC08F0336E030EE82EFED7E5
:101AC0000000290E2A6E000E2B6E18EC08F033165B
:101AD00033501200430E356E7EEC0CF04C0E3C6E13
:101AE000E2EC0AF0406E405012002B6E2B802B501F
:101AF00085EC0DF02C6E2C501200030B131B232BC6
:091B0000333B01151410111213FE
:101B0A002A6E2A962A5012006AEC0DF0526E1200C2
:020000040020DA
:08000000FFFFFFFFFFFFFFFF00
:020000040030CA
:0E000000FF02091EFF8181FF0FC00FE00F40BD
:00000001FF
